:100000000C942E010C945F010C945F010C945F0121
:100010000C945F010C945F010C945F010C945F01E0
:100020000C945F010C945F010C945F010C945F01D0
:100030000C945F010C945F010C945F010C945F01C0
:100040000C945F010C945F010C945F010C945F01B0
:100050000C945F010C945F010C945F010C94F90502
:100060000C945F010C94C3050C9499050C945F01EA
:100070000C945F010C945F010C945F010C945F0180
:100080000C945F010C945F010C945F010C945F0170
:100090000C945F010C945F010C945F010C945F0160
:1000A0000C945F010C945F010C945F010C945F0150
:1000B0000C945F010C945F010C945F010C945F0140
:1000C0000C945F010C945F010C945F010C945F0130
:1000D0000C945F010C945F010C945F010C945F0120
:1000E0000C945F010C943B030C9410020C94A3023B
:1000F0000C944A030C94C2040C9470030C94810376
:100100000C9462030C945E030C9480010C946803BD
:100110000C9476030C9454030C941E020C94470325
:100120000C9424030C9450030C9443030C94AD01E1
:100130000C9480030C946C030C94BC010C947A0313
:100140000C945A030C9429030C9456020C94430605
:100150000C943F0300000A0B02090C0D0E08070364
:10016000040100000000000000000000000000008A
:10017000000000000000000000000000000000007F
:10018000121110000000000000000000000000003C
:100190000000000000000000000000002200250018
:1001A00028002B002E003100340002010000050160
:1001B00008010B0100002100240027002A002D0067
:1001C0003000330001010000040107010A010505A8
:1001D0000505070508080808020202020A0A0808BD
:1001E00004040404010101010101010103030303EB
:1001F00003030303040707070C0C0C0C0C0C0C0C7A
:100200000202020206060606060606060B0B0B0B8A
:100210000B0B0B0B010210202008081020401020AF
:1002200040800201020108040201010204081020BA
:1002300040808040201008040201800402018040B8
:100240002010080402010804020101020408102021
:1002500040800102040810204080430611241FBE84
:10026000CFEFD1E2DEBFCDBF00E00CBF23E0A6EDB3
:10027000B2E001C01D92A63AB207E1F712E0A0E099
:10028000B2E0E2EAFBE100E00BBF02C007900D9292
:10029000A63DB107D9F711E0CEE2D1E000E006C0FB
:1002A00021970109802FFE010E94A80BCD32D107B2
:1002B00080E00807A9F70E9492060C94CF0D0C94D9
:1002C000000090E0FC01EC5EFD4F249182539E4FB4
:1002D000FC018491882399F090E0880F991FFC011C
:1002E000EC54FE4FA591B491FC01E656FE4F85916A
:1002F00094918FB7F894EC91E22BEC938FBF089513
:10030000AF92BF92CF92DF92EF92FF920F931F9323
:10031000CF93DF936C017B018B01040F151FEB0161
:100320005E01AE18BF08C017D10759F06991D60118
:10033000ED91FC910190F081E02DC6011995892B7A
:1003400079F7C501DF91CF911F910F91FF90EF9049
:10035000DF90CF90BF90AF900895FC01538D448DF6
:10036000252F30E0842F90E0821B930B541710F060
:10037000CF96089501970895FC01918D828D98176D
:1003800061F0A28DAE0FBF2FB11D5D968C91928D45
:100390009F5F9F73928F90E008958FEF9FEF089576
:1003A0002FB7F8948091E9029091EA02A091EB02B4
:1003B000B091EC022FBF8093F5029093F602A093C8
:1003C000F702B093F8028DEE92E00E94BC0197FF15
:1003D00026C02FB7F8948091E9029091EA02A0918B
:1003E000EB02B091EC022FBF4091F5025091F60262
:1003F0006091F7027091F802841B950BA60BB70B66
:100400004091F1025091F2026091F3027091F40276
:1004100084179507A607B707B0F28FEF9FEF0895EF
:10042000FC01918D828D981731F0828DE80FF11DBE
:10043000858D90E008958FEF9FEF0895FC01918DD9
:10044000228D892F90E0805C9F4F821B91098F73D2
:10045000992708958DEE92E00E941E0221E0892BDB
:1004600009F420E0822F0895FC01A48DA80FB92F74
:10047000B11DA35ABF4F2C91848D90E001968F73CC
:100480009927848FA689B7892C93A089B1898C91EB
:10049000837080648C93938D848D981306C002883A
:1004A000F389E02D80818F7D80830895EF92FF9204
:1004B0000F931F93CF93DF93EC0181E0888F9B8D87
:1004C0008C8D98131AC0E889F989808185FF15C041
:1004D0009FB7F894EE89FF896083E889F989808164
:1004E0008370806480839FBF81E090E0DF91CF9133
:1004F0001F910F91FF90EF900895F62E0B8D10E055
:100500000F5F1F4F0F731127E02E8C8D8E110CC0C3
:100510000FB607FCFACFE889F989808185FFF5CF0E
:10052000CE010E943402F1CFEB8DEC0FFD2FF11DB7
:10053000E35AFF4FF0829FB7F8940B8FEA89FB894B
:1005400080818062CFCFCF93DF93EC01888D8823A9
:10055000B9F0AA89BB89E889F9898C9185FD03C026
:10056000808186FD0DC00FB607FCF7CF8C9185FF0B
:10057000F2CF808185FFEDCFCE010E943402E9CF1A
:10058000DF91CF91089580E090E0892B29F00E94BF
:100590002A0281110E94000080E090E0892B49F03E
:1005A00080E090E0892B29F00E94000081110E94D8
:1005B000000080E090E0892B49F080E090E0892BFA
:1005C00029F00E94000081110E94000080E090E06C
:1005D000892B49F080E090E0892B29F00E940000EF
:1005E00081110C9400000895282F30E0F901EC5A95
:1005F000FE4F9491F901EC5EFD4F449122533E4F22
:10060000F9012491222309F435C0992311F1915065
:100610009231F8F4E92FF0E08827EE5EFC4F8F4F1F
:100620000C94A80B4303470324033B033F03290314
:100630004A03500354035A035E03620368036C03C6
:100640002903700376037A03809180008F7780936B
:100650008000E22FF0E0EE0FFF1FE656FE4FA5915F
:10066000B4918FB7F894EC91611148C040954E2336
:100670004C938FBF0895809180008F7DE8CF80914B
:100680008000877FE4CF84B58F7784BDE2CF84B5C7
:100690008F7DFBCF8091B0008F778093B000D9CF52
:1006A0008091B0008F7DF9CF809190008F778093FB
:1006B0009000CFCF809190008F7DF9CF80919000F6
:1006C000877FF5CF8091A0008F778093A000C1CF66
:1006D0008091A0008F7DF9CF8091A000877FF5CF1A
:1006E000809120018F7780932001B3CF80912001EA
:1006F0008F7DF9CF80912001877FF5CF4E2BB8CF2A
:10070000089590E080E00895CF93DF93EC0160E0DE
:100710008E810E94F40261E08E810E94F40260E00A
:100720008E810E94F4028BE891E00197F1F7DF914E
:10073000CF910895CF92DF92EF92FF920F931F9384
:10074000CF93DF936C017C0187E0E80EF11CD0E0D1
:10075000C0E0062F10E0B8010C2E02C07595679519
:100760000A94E2F76170F70181917F010E94F4021F
:100770002196C430D10579F7C601DF91CF911F9141
:100780000F91FF90EF90DF90CF900C948403CF9265
:10079000DF92EF92FF920F931F93CF93DF93EC01C1
:1007A000F62E642F8C810E94F4028D818F3F19F008
:1007B00060E00E94F4020F2D10E08F8584FF25C0B9
:1007C0006E0187E0C80ED11CF12CE12CB8010E2C73
:1007D00002C0759567950A94E2F76170F601819100
:1007E0006F010E94F402FFEFEF1AFF0A88E0E8169B
:1007F000F10461F7CE01DF91CF911F910F91FF902E
:10080000EF90DF90CF900C948403B80184E075954D
:1008100067958A95E1F7CE010E949A036F2DCE016C
:10082000DF91CF911F910F91FF90EF90DF90CF90CC
:100830000C949A0340E0682F8AE893E00C94C70375
:10084000CF93DF93823029F490919903986090932D
:10085000990380939D0310929E0380E480939F03ED
:1008600080E18093A00380E58093A10380918E03B3
:100870000E94610180918F038F3F11F00E946101FE
:10088000809190030E946101CAE8D3E09E012A583A
:1008900033408091990384FD0AC084E090E0219662
:1008A000281739073CF48E810E946101EFCF88E060
:1008B00090E0F5CF8BE39DE00197F1F760E0809148
:1008C0008E030E94F40260E0809190030E94F40283
:1008D00080918F038F3F19F060E00E94F4028091B5
:1008E000990384FD39C063E08AE893E00E949A038B
:1008F000CBE4D6E4CE010197F1F763E08AE893E018
:100900000E949A032197F1F763E08AE893E00E943E
:100910009A0383E592E00197F1F762E08AE893E0B9
:100920000E949A038091990380620E941A0484E0D5
:1009300080939A038CE00E941A0481E00E941A04BA
:100940008BE39FE10197F1F782E080939B0386E0C0
:10095000DF91CF910C941A0480620E941A048BE4F8
:1009600096E40197F1F78091990380620E941A043E
:1009700083E592E00197F1F78091990380620E94EC
:100980001A04D0CF41E00E94C70381E090E00895AF
:10099000FB0101900020E9F73197AF01461B570B8F
:1009A000DC01ED91FC910280F381E02D19944F92CE
:1009B0005F926F927F92AF92BF92CF92DF92EF924F
:1009C000FF920F931F93CF93DF93CDB7DEB7A1971D
:1009D0000FB6F894DEBF0FBECDBF5C016A017B018C
:1009E000F7FE47C0DC01ED91FC910190F081E02D14
:1009F0006DE219958C0122273327A9012C193D0995
:100A00004E095F0919A2FE01B1967F019AE0492EB5
:100A1000512C612C712CCA01B901A30192010E94D1
:100A2000670B605DD7016E937D012115310541058E
:100A3000510589F790E080E0109721F0BD01C501D4
:100A40000E94C804800F911FA1960FB6F894DEBFD4
:100A50000FBECDBFDF91CF911F910F91FF90EF900F
:100A6000DF90CF90BF90AF907F906F905F904F904E
:100A70000895AB01960119A28E010F5D1F4F8AE008
:100A8000C82ED12CE12CF12CCA01B901A701960185
:100A90000E94670B605DF80162938F01211531059B
:100AA0004105510589F790E080E0309769F2BF0178
:100AB000C5010E94C804C8CFFC0124813581232BC5
:100AC00039F421E0FB018081882349F020E007C050
:100AD000808191810E94BF0D21E0892BB9F7822F7F
:100AE00008950F931F93CF93DF93EC018881998131
:100AF000009759F02A813B812617370730F081E0B3
:100B0000DF91CF911F910F9108958B016F5F7F4F00
:100B10000E94D50C009759F0998388831B830A8320
:100B20002C813D81232B59F7FC011082E8CF80E016
:100B3000E7CF1F920F920FB60F9211240BB60F92B0
:100B40002F933F934F935F936F937F938F939F93D5
:100B5000AF93BF93EF93FF938DEE92E00E94340228
:100B6000FF91EF91BF91AF919F918F917F916F9185
:100B70005F914F913F912F910F900BBE0F900FBE41
:100B80000F901F9018951F920F920FB60F9211247D
:100B90000BB60F922F938F939F93EF93FF93E09158
:100BA000FD02F091FE028081E0910303F0910403C5
:100BB00082FD1DC09081809106038F5F8F7320910D
:100BC0000703821741F0E0910603F0E0E351FD4F87
:100BD000958F80930603FF91EF919F918F912F91B5
:100BE0000F900BBE0F900FBE0F901F901895808135
:100BF000F2CF1F920F920FB60F9211242F933F93B3
:100C00008F939F93AF93BF938091E9029091EA02F3
:100C1000A091EB02B091EC023091DA0223E0230FB5
:100C20002D3758F50196A11DB11D2093DA0280934E
:100C3000E9029093EA02A093EB02B093EC02809158
:100C4000D6029091D702A091D802B091D902019614
:100C5000A11DB11D8093D6029093D702A093D80214
:100C6000B093D902BF91AF919F918F913F912F91F6
:100C70000F900FBE0F901F90189526E8230F029635
:100C8000A11DB11DD2CFEDEEF2E01382128288EEEB
:100C900093E0A0E0B0E084839583A683B7838AE0E5
:100CA00092E09183808385EC90E09587848784EC43
:100CB00090E09787868780EC90E0918B808B81EC29
:100CC00090E0938B828B82EC90E0958B848B86EC0A
:100CD00090E0978B868B118E128E138E148EEAE81D
:100CE000F3E0138212828CE192E09183808384E3AB
:100CF000848383E3858382E3868385E2878384E23A
:100D0000808783E2818782E2828781E2838780E233
:100D100084878FE185878EE1868780E1878781E000
:100D20000C942004CF93DF93CDB7DEB72E970FB688
:100D3000F894DEBF0FBECDBF789484B5826084BDC9
:100D400084B5816084BD85B5826085BD85B58160CF
:100D500085BD80916E00816080936E00109281004D
:100D60008091810082608093810080918100816008
:100D700080938100809180008160809380008091C9
:100D8000B10084608093B1008091B0008160809355
:100D9000B0008091910082608093910080919100D9
:100DA0008160809391008091900081608093900099
:100DB0008091A10082608093A1008091A100816058
:100DC0008093A1008091A00081608093A000809119
:100DD00021018260809321018091210181608093B3
:100DE00021018091200181608093200180917A000F
:100DF000846080937A0080917A00826080937A0088
:100E000080917A00816080937A0080917A00806876
:100E100080937A001092C100E091FD02F091FE02F1
:100E200082E08083E091F902F091FA021082E09171
:100E3000FB02F091FC028FEC808310920503E0919D
:100E40000103F091020386E08083E091FF02F091BC
:100E50000003808180618083E091FF02F0910003B4
:100E6000808188608083E091FF02F091000380819F
:100E700080688083E091FF02F091000380818F7D84
:100E8000808382E00E9420048BE3682E8FE1782E1D
:100E900099E0292E312C412C512C18861F821A865C
:100EA00019861C861B8670E060E0CE0107960E94C2
:100EB00071052F81388581112EC02115310519F05A
:100EC000C9010E944C0C18861F821C861B861A863C
:100ED00019860E94D00197FD26C08A30910519F12C
:100EE00089831A820B851C850F5F1F4FB801CE01C5
:100EF00007960E947105882361F32F8138858B85C1
:100F00009C85BE016F5F7F4F820F931F0E94C80DAB
:100F10001C870B87DECF1C861B8662ED72E0C90141
:100F20000E94C80DD6CF1A8219821C821B821E8293
:100F30001D820F81188501151105B9F0EB84FC8421
:100F4000B701CE0101960E94710529813A81811174
:100F5000C6C22115310519F0C9010E944C0C1A8234
:100F600019821E821D821C821B8281E00E941A044B
:100F7000C3010197F1F764E272E0CE0101960E948D
:100F80005C058823C9F02091E4023091E50240918C
:100F9000E6025091E702211531054105510561F046
:100FA000AAE0B0E00E943D0B6093E4027093E5027A
:100FB0008093E6029093E7026DE272E0CE01019623
:100FC0000E945C058823D1F02091E4023091E50273
:100FD0004091E6025091E702211531054105510586
:100FE00009F084C281E090E0A0E0B0E08093E402E8
:100FF0009093E502A093E602B093E70266E372E005
:10100000CE0101960E945C058823D1F02091E40274
:101010003091E5024091E6025091E7022115310539
:101020004105510509F073C282E090E0A0E0B0E014
:101030008093E4029093E502A093E602B093E70266
:101040006FE372E0CE0101960E945C058823D1F027
:101050002091E4023091E5024091E6025091E702CE
:10106000211531054105510509F062C283E090E088
:10107000A0E0B0E08093E4029093E502A093E60242
:10108000B093E70268E472E0CE0101960E945C052D
:101090008823D1F02091E4023091E5024091E602EC
:1010A0005091E702211531054105510509F051C262
:1010B00084E090E0A0E0B0E08093E4029093E50249
:1010C000A093E602B093E70261E572E0CE010196DB
:1010D0000E945C058823D1F02091E4023091E50262
:1010E0004091E6025091E702211531054105510575
:1010F00009F040C285E090E0A0E0B0E08093E40217
:101100009093E502A093E602B093E7026AE572E0ED
:10111000CE0101960E945C058823D1F02091E40263
:101120003091E5024091E6025091E7022115310528
:101130004105510509F02FC286E090E0A0E0B0E043
:101140008093E4029093E502A093E602B093E70255
:1011500063E672E0CE0101960E945C058823D1F01F
:101160002091E4023091E5024091E6025091E702BD
:10117000211531054105510509F01EC287E090E0B7
:10118000A0E0B0E08093E4029093E502A093E60231
:10119000B093E7026CE672E0CE0101960E945C0516
:1011A0008823D1F02091E4023091E5024091E602DB
:1011B0005091E702211531054105510509F00DC295
:1011C00088E090E0A0E0B0E08093E4029093E50234
:1011D000A093E602B093E70265E772E0CE010196C4
:1011E0000E945C058823B1F02091E4023091E50271
:1011F0004091E6025091E702211531054105510564
:1012000009F0FCC12092E4023092E5024092E6022D
:101210005092E7026EE772E0CE0101960E945C05F3
:101220008823D1F01092E0021092E1021092E202C3
:101230001092E3021092DB021092DC021092DD02A7
:101240001092DE021092E4021092E5021092E60281
:101250001092E7021092E8026BE872E0CE0101966C
:101260000E945C05882399F08091E4029091E50248
:10127000A091E602B091E7028093E0029093E10230
:10128000A093E202B093E30281E08093E80269E96F
:1012900072E0CE0101960E945C05811119C067EAD7
:1012A00072E0CE0101960E945C05811111C067EBCE
:1012B00072E0CE0101960E945C05811109C064ECC8
:1012C00072E0CE0101960E945C05882309F444C0B7
:1012D0008091E4029091E502A091E602B091E702CC
:1012E0008093DB029093DC02A093DD02B093DE02D8
:1012F0001092E4021092E5021092E6021092E702C8
:1013000069E972E0CE0101960E945C05882319F01C
:101310008FE28093DF0267EA72E0CE0101960E94BD
:101320005C05882319F08AE28093DF0267EB72E0A4
:10133000CE0101960E945C05882319F08DE280930E
:10134000DF0264EC72E0CE0101960E945C05882306
:1013500019F08BE28093DF0289819A81009711F066
:101360000E944C0C8091E802882309F454C08090BC
:10137000DB029090DC02A090DD02B090DE021091C2
:10138000DF02C090E002D090E102E090E202F09033
:10139000E3021B3209F043C1D701C601880D991D34
:1013A000AA1DBB1D8093E4029093E502A093E60280
:1013B000B093E702A091E402B091E502BE87AD8749
:1013C000A401990C660B770B8DEE92E00E94D70476
:1013D000612F8DEE92E00E945602A601DD0C660B95
:1013E000770B8DEE92E00E94D70464ED72E08DEEF3
:1013F00092E00E94C8048D859E85AC01990F660B12
:10140000770B8DEE92E00E94D70460ED72E08DEED6
:1014100092E00E94C804E1E080919D038111E0E028
:10142000E195F0E0E657FC4F848980680E941A0439
:101430004091DB025091DC026091DD027091DE028E
:101440008AE893E00E94D70441E06091DF028AE8D5
:1014500093E00E94C7034091E0025091E102609145
:10146000E2027091E3028AE893E00E94D70480913F
:10147000E802882391F063ED72E08AE893E00E942D
:10148000C8044091E4025091E5026091E602709137
:10149000E7028AE893E00E94D704E0919D03E230DE
:1014A00008F0E9C0E150F0E0E657FC4F848980681D
:1014B0000E941A044091E4025091E5026091E60214
:1014C0007091E7028AE893E00E94D7048F819885A3
:1014D000009711F00E944C0C0E94C302DECCFE82E9
:1014E000ED82B801C9010E94C80D3FCDAAE0B0E06D
:1014F0000E943D0B6F5F7F4F8F4F9F4F6093E402C1
:101500007093E5028093E6029093E70277CDAAE01C
:10151000B0E00E943D0B6E5F7F4F8F4F9F4F6093F7
:10152000E4027093E5028093E6029093E70288CD8F
:10153000AAE0B0E00E943D0B6D5F7F4F8F4F9F4F41
:101540006093E4027093E5028093E6029093E702D1
:1015500099CDAAE0B0E00E943D0B6C5F7F4F8F4FAA
:101560009F4F6093E4027093E5028093E6029093AC
:10157000E702AACDAAE0B0E00E943D0B6B5F7F4F6F
:101580008F4F9F4F6093E4027093E5028093E602D1
:101590009093E702BBCDAAE0B0E00E943D0B6A5FEA
:1015A0007F4F8F4F9F4F6093E4027093E5028093CB
:1015B000E6029093E702CCCDAAE0B0E00E943D0B9A
:1015C000695F7F4F8F4F9F4F6093E4027093E502F6
:1015D0008093E6029093E702DDCDAAE0B0E00E949E
:1015E0003D0B685F7F4F8F4F9F4F6093E402709376
:1015F000E5028093E6029093E702EECDAAE0B0E028
:101600000E943D0B675F7F4F8F4F9F4F6093E402B7
:101610007093E5028093E6029093E702FBCD1D32C2
:1016200039F4D501C4018C199D09AE09BF09BACEA0
:101630001A3279F4A7019601C501B4010E94570B33
:101640006093E4027093E5028093E6029093E702D0
:10165000B1CE1F3209F0AECEC501B401A70196018B
:101660000E94890B2093E4023093E5024093E60246
:101670005093E7029FCEE1E016CF0E94480BA59F52
:10168000900DB49F900DA49F800D911D112408957D
:10169000A29FB001B39FC001A39F700D811D1124B3
:1016A000911DB29F700D811D1124911D0895DB01C4
:1016B0008F939F930E943D0BBF91AF91A29F800D8E
:1016C000911DA39F900DB29F900D11240895A1E24A
:1016D0001A2EAA1BBB1BFD010DC0AA1FBB1FEE1FAC
:1016E000FF1FA217B307E407F50720F0A21BB30BF7
:1016F000E40BF50B661F771F881F991F1A9469F773
:1017000060957095809590959B01AC01BD01CF01CE
:101710000895052E97FB1EF400940E94A00B57FD20
:1017200007D00E94670B07FC03D04EF40C94A00B6B
:1017300050954095309521953F4F4F4F5F4F0895FD
:1017400090958095709561957F4F8F4F9F4F08952D
:10175000EE0FFF1F881F8BBF0790F691E02D1994A5
:101760000F931F93CF93DF938230910510F482E0A3
:1017700090E0E091A403F091A50330E020E0B0E018
:10178000A0E0309799F42115310509F44AC0281BCF
:10179000390B24303105D8F58A819B81611571059B
:1017A00089F1FB0193838283FE0111C04081518145
:1017B0000281138148175907E0F04817590799F437
:1017C000109761F012960C93129713961C93329611
:1017D000CF01DF91CF911F910F9108950093A40342
:1017E0001093A503F4CF2115310551F0421753078B
:1017F00038F0A901DB019A01BD01DF01F801C1CF79
:10180000EF01F9CF9093A5038093A403CDCFFE0100
:10181000E20FF31F8193919322503109398328837A
:10182000D7CF2091A2033091A303232B41F4209121
:101830000202309103023093A3032093A20320916C
:101840000002309101022115310541F42DB73EB758
:101850004091040250910502241B350BE091A20334
:10186000F091A303E217F307A0F42E1B3F0B2817F8
:10187000390778F0AC014E5F5F4F2417350748F009
:101880004E0F5F1F5093A3034093A2038193919344
:101890009FCFF0E0E0E09CCFCF93DF930097E9F09B
:1018A000FC01329713821282A091A403B091A50388
:1018B000ED0130E020E01097A1F420813181820F0A
:1018C000931F2091A2033091A3032817390709F031
:1018D00061C0F093A303E093A203DF91CF91089539
:1018E000EA01CE17DF07E8F54A815B819E014115C9
:1018F0005105B1F7E901FB83EA8349915991C40F7E
:10190000D51FEC17FD0761F4808191810296840F49
:10191000951FE90199838883828193819B838A83C0
:10192000F0E0E0E012968D919C9113970097B9F545
:101930002D913C911197CD010296820F931F20911A
:10194000A2033091A3032817390739F6309751F5D0
:101950001092A5031092A403B093A303A093A20333
:10196000BCCFD383C28340815181840F951FC81798
:10197000D90761F44E5F5F4F88819981480F591FE5
:10198000518340838A819B81938382832115310512
:1019900009F0B0CFF093A503E093A4039ECFFD011F
:1019A000DC01C0CF13821282D7CF4F925F926F9229
:1019B0007F928F929F92AF92BF92CF92DF92EF92DF
:1019C000FF920F931F93CF93DF938C01009799F4AD
:1019D000CB01DF91CF911F910F91FF90EF90DF909E
:1019E000CF90BF90AF909F908F907F906F905F90BF
:1019F0004F900C94B00BFC01E60FF71F9C01225096
:101A00003109E217F30708F4AEC0D901CD91DC919A
:101A10001197C617D70720F1C530D10578F0CE0150
:101A200004978617970750F0C61BD70B2297C193D0
:101A3000D1936D937C93CF010E944C0CC801DF9130
:101A4000CF911F910F91FF90EF90DF90CF90BF90BB
:101A5000AF909F908F907F906F905F904F90089580
:101A60005B01AC1ABD0A4C018C0E9D1EA091A40313
:101A7000B091A503512C412CF12CE12C109731F59C
:101A80008091A2039091A3038815990509F05CC089
:101A90004616570608F058C0809100029091010246
:101AA000009741F48DB79EB7409104025091050212
:101AB000841B950BE817F90708F055C0F093A303B2
:101AC000E093A203F90171836083B8CF8D919C915B
:101AD000119712966C90129713967C901397A815F5
:101AE000B90559F56C0142E0C40ED11CCA14DB04DF
:101AF00020F1AC014A195B09DA011296159780F0C2
:101B00006282738251834083D9016D937C93E11487
:101B1000F10471F0D7011396FC93EE9312978ECFD8
:101B200022968C0F9D1FF90191838083F301EFCFE3
:101B3000F093A503E093A40381CF4816590608F457
:101B40002C017D01D3019ACFCB010E94B00B7C0107
:101B5000009749F0AE01B8010E94B60DC8010E947D
:101B60004C0C87016BCF10E000E068CFFB01DC017B
:101B700002C001900D9241505040D8F70895FB01EA
:101B8000DC018D91019080190110D9F3990B089512
:101B9000FB01DC0101900D920020E1F70895F8941B
:021BA000FFCF75
:101BA2000000A60380000000000056028001AD0183
:101BB200A3021E02BC01100200000000C204800148
:101BC20081038003627574746F6E5F300062757496
:101BD200746F6E5F3100627574746F6E5F32006293
:101BE2007574746F6E5F3300627574746F6E5F34F8
:101BF20000627574746F6E5F3500627574746F6E17
:101C02005F3600627574746F6E5F3700627574744C
:101C12006F6E5F3800627574746F6E5F3900627543
:101C220074746F6E5F636C65617200627574746F59
:101C32006E5F657175616C7300627574746F6E5F4F
:101C420064697669646500627574746F6E5F6D7540
:101C52006C7469706C7900627574746F6E5F6D6913
:101C62006E757300627574746F6E5F706C7573005D
:061C72000D0A00203D00F8
:00000001FF
